:1000000000000420E1020000090300000B030000CF
:100010000D0300000F0300001103000000000000AA
:1000200000000000000000000000000013030000BA
:100030001503000000000000170300001903000072
:100040001B0300001B0300001B0300001B03000038
:100050001B0300001B030000310800001B0300000D
:10006000250C00001B0300001B0300001B03000005
:100070001B0300001B0300001B0300001B03000008
:100080001B0300001B0300001B0300001B030000F8
:100090001B0300001B0300001B0300001B030000E8
:1000A0001B0300001B0300001B0300001B030000D8
:1000B0001B0300001B030000000000000000000004
:1000C0001B0300001B0300001B0300001B030000B8
:1000D0001B0300001B0300001B0300001B030000A8
:1000E0001B0300001B0300001B03000000000000B6
:1000F000000000001B030000000000001B030000C4
:1001000000000000000000000000000000000000EF
:1001100000000000000000000000000000000000DF
:1001200000000000000000000000000000000000CF
:1001300000000000000000000000000000000000BF
:1001400000000000000000000000000000000000AF
:10015000000000000000000000000000000000009F
:10016000000000000000000000000000000000008F
:10017000000000000000000000000000000000007F
:10018000000000000000000000000000000000006F
:10019000000000000000000000000000000000005F
:1001A000000000000000000000000000000000004F
:1001B000000000000000000000000000000000003F
:1001C000000000000000000000000000000000002F
:1001D000000000000000000000000000000000001F
:1001E000000000000000000000000000000000000F
:1001F00000000000000000000000000000000000FF
:1002000010B5054C237833B9044B13B10448AFF350
:1002100000800123237010BD70000020000000004A
:100220002C1000000C4B43B10C480D4910B5AFF336
:1002300000800C48036823B910BD0A48036833B92D
:100240007047094B002BF7D0BDE810401847064B0C
:10025000002BF5D0184700BF000000002C10000054
:10026000740000206C00002000000000154B002BE3
:1002700008BF134B9D46A3F5803A00218B460F46DD
:100280001348144A121A00F0B7FE0F4B002B00D08F
:1002900098470E4B002B00D0984700200021040007
:1002A0000D000D48002802D00C48AFF3008000F08C
:1002B0007FFE2000290000F06DFD00F065FE00BF0C
:1002C0000000080000000420000000000000000002
:1002D000700000200001002000000000000000006D
:1002E0000649074A074B9B1A03DD043BC858D05008
:1002F000FBDC00F067FDFFF7B9FF000038100000DD
:100300000000002070000020FEE7FEE7FEE7FEE7A9
:10031000FEE7FEE7FEE7FEE7FEE7FEE700B585B095
:1003200000230390194601AA44F2010001930293AD
:1003300000F004F805B05DF804FB00BF72B6094B8D
:100340001B68DB0700D500BEBFF34F8F0649074B84
:10035000CA6802F4E0621343CB60BFF34F8F00BF63
:10036000FDE700BFF0ED00E000ED00E00400FA055D
:1003700072B6024A13680133136070478C00002084
:10038000034A1368013B136003B962B6704700BFAC
:100390008C000020034B187808B18520704701229B
:1003A0001A7070479000002070B51E4C94F85B5096
:1003B00082B015B1082002B070BD4FF0FF3329465E
:1003C000062204F155006362A362E3622363636360
:1003D000A363E36323646364A364E364236523602A
:1003E0006360A360E36023616361A361E3612362EF
:1003F00084F8543000F000FE0B4A0C4B0C491D6091
:10040000C026402082F8066310601B6801930198A3
:100410004FF000430122284684F85B20C1F80433E2
:1004200002B070BD9400002000E100E07C6100405B
:100430000060004070B4494B1A1892F9244001340E
:1004400002D0082070BC70478C78DCB11A68013289
:1004500077D05A68013276D09A68013275D0DA685E
:10046000013274D01A69013273D05A69013272D0E4
:100470009A69013231D0DA69013208BF07252DD0DF
:100480000420DFE7FE2382F824304B78012B4BD089
:100490001F2887BF00F01F01314A01464FF0A042DC
:1004A00001238B40C2F80C351F288BBF00F01F03BF
:1004B00003462B4A4FF0A04203F5E073032142F8B4
:1004C000231020FA01F3274A00F00704D15C012031
:1004D000A0400843D0540020B4E70625AA0002F14A
:1004E000804202F5C0421E18002443F8254086F8D9
:1004F0002450D2F810450B784D7824F4991424F444
:10050000F8541B042D05C2F8104505F4801503F4BA
:10051000403304022B4304F47C54D2F81055234397
:100520002B43C2F81035B0E71F2887BF00F01F012A
:100530000B4A01464FF0A04201238B40C2F8083518
:10054000B2E70025CAE70125C8E70225C6E703256B
:10055000C4E70425C2E70525C0E700BF94000020DA
:1005600000030050E9000020074B184490F92430A4
:100570009B0003F1804303F5C043D3F8102542F0FC
:100580000302C3F81025704794000020054B18445F
:1005900090F924008000C0B200F1804000F5C04016
:1005A000704700BF94000020F0B5554B1C1894F91B
:1005B0002450002D01DB0820F0BD8D78C5F34006E6
:1005C000EEB11D68013500F095805C68013400F0E3
:1005D0008F809C68013400F08980DC68013400F071
:1005E00083801C6901347DD05C69013478D09C69BA
:1005F000013473D0DC69013466D00420F0BD1D6A7B
:100600000135FAD1082684F8246035461A6234464A
:100610001C4484F84C008A7854071CD4D60744D56F
:100620001F2887BF374A00F01F0404464FF0A0423E
:1006300002EB8402D2F8004724F00204C2F800471B
:10064000314EC40800F0070E375D012202FA0EF2A7
:100650003A4332558A7812F002020AD1083D2B44FF
:10066000087893F8541041EA801183F8541010462A
:10067000F0BDAD0005F1804505F5C0450A78D5F817
:10068000101521F44F3121F44071C5F81015030203
:100690001204D5F8101502F4403203F47C531343CE
:1006A0000B43C5F810350020F0BD1F284C7887BFDC
:1006B000144E00F01F0202464FF0A04602F5E07211
:1006C000A40046F82240BBE707241F1865B243F890
:1006D000242087F82450002E9DD199E70624F4E7C2
:1006E0000524F2E70424F0E70324EEE70224ECE714
:1006F0000124EAE700251A6084F824508BE700BF44
:100700009400002000030050E9000020F0B43A4DAE
:100710002E1882B096F92430072B20DD2B4493F855
:100720004C309B09032B45D0012B14BF4FF44031B3
:100730004FF400311F284DD900F01F002F4B03EB61
:100740008000D0F8002722F44032C0F80027D0F80B
:1007500000370B43C0F8003702B0F0BC7047DAB284
:10076000072AF9D8980000F1804000F5C04003F155
:1007700040029200D0F8104592B202F18042002768
:1007800044F0010402F5C042C0F8104501970198F9
:1007900017600029E0D096F9242055F82220002A7D
:1007A000DAD00122164902FA03F3C1F8043302B089
:1007B000F0BC70471F2810D9104BD3F8103500F04B
:1007C0001F00C340DB0748BF4FF44031B6D44FF49D
:1007D0000031B3E74FF0A043B1E74FF0A04213461A
:1007E000D2F81025C24012F0010F14BF4FF440316F
:1007F0004FF40031A3E700BF940000200003005035
:1008000000600040084B184490F92400C3B2072B45
:1008100007D84030800080B200F1804000F5C04031
:1008200070470248704700BF940000207C61004080
:100830002DE9F04389B00023B94A0393029311686C
:10084000012900F00B811E46B64B1A68012A00F000
:10085000F780B54B1A68012A00F0E480B34B1A68A0
:10086000012A00F0D180B24B1A68012A00F0BE8044
:10087000B04B1A68012A00F0AB80AF4B1A68012A0E
:1008800000F09880AD4B1A68012A00F08580AC4BCF
:100890001A68012A6FD016F0FF0F1AD0A94F012550
:1008A0000024A30003F180432E4203F5C0434FEA26
:1008B00045050BD0D3F8100557F82420D3F81015B0
:1008C000C0F30520C1F3014102B190470134082C67
:1008D000E7D1002E02DB09B0BDE8F083994D95F910
:1008E00054304FF0FF320DF1100800219342C8F848
:1008F0000410049106920792EDD0DBB223F0C00001
:1009000008AA4FEAD00E02EB0E04012603F00702FC
:1009100014F8081C06FA02F21142DCD08A4E4FF09D
:10092000A04705EB000C99099CF924C055F82C90C0
:10093000B9F1000F00F0AB80032900F0AB801F2855
:1009400000F2A18086464FF0A04303EB8E0314F81B
:1009500018ECD3F800471EEA020FC4F3014440F03C
:100960008980032CB7D1032900F09B80B9F1000FD7
:10097000B1D0C847AFE700221A601B6801934FF05F
:10098000A042019BD2F810256F4B0292D3F810358C
:10099000039346F000467EE76C4AD2F80423110622
:1009A0007FF575AF00221A601B680093009B46F02C
:1009B00080066CE7654AD2F8042350067FF562AFE3
:1009C00000221A601B680093009B46F0400659E71E
:1009D0005E4AD2F8042394067FF54FAF00221A60D6
:1009E0001B680093009B46F0200646E7574AD2F862
:1009F0000423D5067FF53CAF00221A601B680093E4
:100A0000009B46F0100633E7504AD2F8042317073C
:100A10007FF529AF00221A601B680093009B46F007
:100A2000080620E7494AD2F8042352077FF516AF9B
:100A300000221A601B680093009B46F004060DE735
:100A4000424AD2F8042391077FF503AF00221A60CF
:100A50001B680093009B46F00206FAE63B49D1F87A
:100A6000046316F001063FF4EFAE136013680093C1
:100A7000009BE9E6022C7FF42EAF03297FF476AFCA
:100A80004FF440310FE003F01F0E33465DE70329BA
:100A90007FF421AF18F80EC04CEA020C08F80EC023
:100AA0004DE74FF40031D3F8002722F44032C3F869
:100AB0000027D3F800270A43C3F80027B9F1000F35
:100AC00001D00321C847D7F81025029BD6F810158E
:100AD000934203D1039B8B423FF4FDAE95F9543012
:100AE000049C059802925A1C0391069407903FF4C7
:100AF000F2AEDBB223F0C00008AA4FEAD00E02EB40
:100B00000E044FF0010C03F0070214F8081C0CFA55
:100B100002F211427FF405AF09B0BDE8F08300BFD7
:100B20000061004004610040086100400C61004029
:100B30001061004014610040186100401C610040D9
:100B40007C610040940000200003005000600040E1
:100B50002DE9F84F154DDFF85890824600264FF0EA
:100B6000010803E0FFF70CFCA5431BD0F7B20020FF
:100B700008FA07F4FFF7FCFB2C424FF0000006F1E7
:100B80000106EFD0D9F8003014EA030BEAD11C4378
:100B900058468AF80070C9F80040FFF7F1FB584644
:100BA000BDE8F88F0420BDE8F88F00BFFFFF0F00FD
:100BB000F000002051B14AB10123834010B4C3F3C7
:100BC00013042CB907205DF8044B70470E207047C2
:100BD000094C2468234203D108205DF8044B704778
:100BE000C00000F1804303F5F8330020C3F810156E
:100BF000C3F81425E7E700BFF0000020012383407D
:100C0000C3F313022AB1054A1268134201D1082026
:100C10007047034A0020C2F804357047F0000020F6
:100C200000F0014000B52B4B1A6883B022B12A4A6C
:100C3000D2F80423D20328D4284B1A6822B1264ABA
:100C4000D2F8042390032CD4254B1A6822B1224AEF
:100C5000D2F80423510330D4224B1A6822B11E4A21
:100C6000D2F80423120302D403B05DF804FB00227F
:100C70001A601D4A1B68019351681368019A4FF46A
:100C8000A670984703B05DF804FB00221A60164A6C
:100C90001B68019351681368019A4FF4A07098473C
:100CA000CAE700221A60104A1B6801935168136852
:100CB000019A4FF4A2709847C6E700221A600A4AC8
:100CC0001B68019351681368019A4FF4A470984708
:100CD000C2E700BF408100400080004044810040E6
:100CE000488100404C810040F400002070B584B081
:100CF00000259DF80A308DF8095003F0FC0365F3D8
:100D000082030C462A46032602A98DF80A308DF884
:100D100008600546FFF748FCB8BB1D4B03A91A88BD
:100D20009B78ADF80C2020468DF80E30FFF782FB43
:100D300040BB0DF10700FFF70BFF00BB2846FFF794
:100D400061FD06462046FFF721FC314602469DF82C
:100D50000700FFF72FFF78B99DF80700FFF74EFF58
:100D600008B1FFF7DBFA28460121FFF7CFFC204648
:100D7000FFF7FAFB04B070BDFFF7D0FAECE7FFF71E
:100D8000CDFADBE7FFF7CAFAD3E7FFF7C7FAC4E704
:100D90002410000008B5FFF7FDFA50B9FFF704FB77
:100DA00068B906212620FFF7A1FF20BF40BF20BF62
:100DB000FBE7FFF7B3FAFFF7F7FA0028F1D0FFF7E8
:100DC000ADFAEEE710B44FF080414FF080520020B2
:100DD000C1F80C015E4BC1F81001C1F83805D2F81A
:100DE0000414C3F82015D2F80814C3F82415D2F857
:100DF0000C14C3F82815D2F81014C3F82C15D2F827
:100E00001414C3F83015D2F81814C3F83415D2F8F6
:100E10001C14C3F84015D2F82014C3F84415D2F8B6
:100E20002414C3F84815D2F82814C3F84C15D2F886
:100E30002C14C3F85015D2F83014C3F85415D2F856
:100E40003414C3F86015D2F83814C3F86415D2F816
:100E50003C04C3F86805D2F840043E49C3F86C0569
:100E60000968D2F84424C3F87025082924D04FF02B
:100E70008043D3F80024D20744BF6FF00102C3F8C7
:100E80000024354AD2F8883043F47003C2F8883021
:100E9000BFF34F8FBFF36F8F4FF01023D3F80022B3
:100EA000002A23DBD3F80432002B1FDB2B4B2C4A08
:100EB0001A605DF8044B70472A4B1B68002BD6D193
:100EC00029482A4A2A4C04602A492B4BFB20C2F8A5
:100ED00018050A681B68294822F00F0203F00F0367
:100EE00013434FF400720B600260C0E7244B0122F1
:100EF000C3F80425D3F80024002AFBD04FF01023B8
:100F000012221F49C3F80022D1F80034002BFBD075
:100F10004FF0102212211A4BC2F80412D3F8002409
:100F2000002AFBD000221649C3F80425D1F800346A
:100F3000002BFBD0BFF34F8F0749124BCA6802F456
:100F4000E0621343CB60BFF34F8F00BFFDE700BFEC
:100F500000C000403001001000ED00E00000002063
:100F60000090D003340100108C56004000F0004087
:100F700048810300E40E00405802001040960240F1
:100F800000E001400400FA0508B5074B044613B120
:100F90000021AFF30080054B1868836A03B19847BE
:100FA000204600F031F800BF0000000028100000CB
:100FB00070B50D4E0D4CA41BA4100025A54209D1FF
:100FC0000B4E0C4C00F022F8A41BA4100025A542E7
:100FD00005D170BD56F8253098470135EEE756F833
:100FE000253098470135F2E76400002064000020B6
:100FF000640000206800002002440346934200D1B0
:10100000704703F8011BF9E7FEE700BFF8B500BF22
:10101000F8BC08BC9E467047F8B500BFF8BC08BCD9
:101020009E467047030001000400002000000000FD
:081030003CF2FF7F010000000B
:101038000090D00300000000000000000000000045
:101048000000000000000000000000000000000098
:101058000000000000000000000000000000000088
:101068000000000000000000000000000000000078
:101078000000000000000000000000000000000068
:101088000000000000000000000000000000000058
:10109800000000002502000001020000000000001E
:04000003000002E116
:00000001FF
